:080000000C943D000C9400007B
:100008000C9400000C9400000C9400000C94000068
:100018000C9400000C9400000C9400000C94000058
:100028000C9400000C9400000C9400000C94000048
:100038000C9400000C9400000C9400000C94000038
:100048000C9400000C9400000C94000000000000C8
:100058000000000001003F065B4F666D7D077F6F63
:100068008000FA000A00040054000B0060025E00E1
:100078000000F894EE27ECBBF1E0F5BFE5BF8DE09A
:10008800A2E0BB27ED938A95E9F780E098E0A0E627
:10009800ED930197E9F7ECE6F0E0859195910097EB
:1000A80061F0A591B59105901590BF01F0010590FB
:1000B8000D920197E1F7FB01F0CFEFE5EDBFE8E026
:1000C800EEBFC0E6D2E00C942901EBE3F0E0EA15BC
:1000D800FB052CF4F40131964F01AA24BB24EBE371
:1000E800F0E0E815F9052CF4F30131963F01882476
:1000F8009924E7E1F0E0E615F70514F4662477247F
:100108000024A014B00434F4F40131974F01EBE358
:10011800F0E05F0100248014900434F4F301319777
:100128003F01EBE3F0E04F010024601470041CF47D
:10013800E7E1F0E03F010895BA93AA931A930A936E
:10014800EA81FB81309719F4D301B4D031C0E13092
:10015800A0E0FA0711F4D30127C0E230A0E0FA07C3
:1001680019F4E0916A022AC0E330A0E0FA0719F412
:10017800D401A0D01DC0E430A0E0FA0711F4D401E6
:1001880013C0E530A0E0FA0719F4E0916A0216C03E
:10019800E630A0E0FA0719F4D5018CD009C0E730A1
:1001A800A0E0FA0761F4D501EAE0F0E00E94A001BE
:1001B8008F01A0E6B2E0A00FB11FEC91E5BB198159
:1001C800088124960895C8990CC0F601AFEFBFEFD7
:1001D8000E9483016F0173D011F4E1E001C0E0E0F7
:1001E800E8BBC99902C070D009F003C0F501319687
:1001F8005F01C99902C063D009F003C0F5013197C6
:100208005F01CA9902C060D009F003C0F4013196B9
:100218004F01CA9902C053D009F003C0F4013197C5
:100228004F01CB9902C050D009F003C0F3013196B9
:100238003F01CB9902C043D009F003C0F3013197C5
:100248003F01F50131965F01089511E020E030E0AB
:10025800EFEFE4BBE1BBE5BBE0E0EABBEFEFEBBBF4
:10026800E7BBE0E0E8BB44245524E12FE095E2BB7E
:10027800110F103009F411E02830E0E03E0714F0C7
:1002880020E030E022DFD90157DF2F5F3F4FA4E0A5
:10029800B0E00E946D01D201EAEFF0E00E94A001F7
:1002A800309719F4442455248EDFF20131962F013A
:1002B800DCCFFFCFEAE0F0E00E949B010895EFEF6A
:1002C800FFEFEC15FD050895E1E0F0E0EC15FD0504
:1002D8000895109639F08AEF90E00197F1F7A89504
:1002E8001197C9F70895F195E195F0400895FA9F9F
:1002F800F02DEB9FF00DEA9FE02DF10D08952AD027
:10030800F6DF0EF4F0DF08950024112490E1AA0F1F
:10031800BB1F001C111C0E1A1F0A18F40E0E1F1EFC
:1003280001C0A1609A9599F7FD01D001089512D0F6
:10033800EBDF0EF4D8DF0895E894B7FF04C0A0956A
:10034800B09511966894F7FDCEDFDEDFFD010EF45F
:10035800CADF0895E894F7FF02C0C5DF6894B7FFC5
:1003680006C0A095B095119600F8039400FA089578
:00000001FF
