:100000000C94BE000C9400000C9400000C944C0165
:100010000C9400000C9400000C9400000C94000060
:100020000C9400000C9400000C9400000C94000050
:100030000C9400000C9400000C9400000C94000040
:100040000C9400000C9400000C9400000C94000030
:100050000C940000FEFDFBF73738392F3435362A73
:100060003132332D43303D2B0000000000000000F2
:10007000000050415353574F5244204348414E478C
:10008000454400494E56414C494420434841522082
:100090002100454E5445522050415353574F52442E
:1000A00000454E5445522050415353574F5244201F
:1000B000204649525354004C4F434B004F50454E3D
:1000C0000057524F4E472050415353002A2A2A2AA4
:1000D00000454E544552204E455720504153530041
:1000E0004552524F5245005365742070617373201E
:1000F0003A20005052455353205448524545203D24
:1001000020544F205345542050415353574F52448D
:10011000000080C001002D4E414E00494E460000B7
:100120000A00040068001100600272000F007102F2
:1001300083000F008002920016008F02A1000500CC
:10014000A502B7000500AA02BC000B00AF02C10067
:100150000500BA02CC000F00BF02D1000700CE029A
:10016000E0000C00D502E7001E00E102F3000200EF
:10017000090312010100100314010000F894EE2796
:10018000ECBBF1E0F5BFE5BF8DE0A2E0BB27ED934E
:100190008A95E9F780E098E0A0E6ED930197E9F70A
:1001A000E0E2F1E085919591009761F0A591B5911C
:1001B00005901590BF01F00105900D920197E1F7B0
:1001C000FB01F0CFEFE5EDBFE8E0EEBFC0E6D2E027
:1001D0000C9457021A930A9300E010E00430E0E018
:1001E0001E0794F4AFEFB2E0A00FB11F0C90A4E093
:1001F000B3E0A00FB11FEC91E01519F0E0E0F0E0E2
:1002000005C00F5F1F4FEACFE1E0F0E009911991BF
:100210000895AA93A881A03310F0AA3308F005C06E
:10022000E4E0F0E04E165F060CF009C0F201E15088
:10023000FD4FA881A083F20131962F012BC0E4E08D
:10024000F0E0E415F50519F4A881AB3209F012C00D
:100250000E94AB02A0E6B2E00E94D90244245524D9
:1002600088249924E1E0F0E05F0166247724ACE281
:10027000B1E00CC00E94AB02A1E7B2E00E94D9023B
:100280004424552466247724ACEBB2E00E94370363
:100290000E94AB020C9416030A921A92FA926A9385
:1002A0007A938A939A93AA93BA93EA93FA93EFB7BD
:1002B000EA930E94460310E01430C0F4E12FF0E00E
:1002C000EC5AFF4F049002BA849902C000E00EC0BD
:1002D000859902C001E00AC0869902C002E006C00A
:1002E000879902C003E002C01F5FE6CFE12FA8E5B7
:1002F000B0E0F0E00E944103AE0FBF1FE02FF0E03E
:10030000EA0FFB1F3491333489F4E1E0F0E0EA15A1
:10031000FB0539F4A0E8B2E00E94200366247724AC
:1003200004C0AFE8B2E00E94200315D1333449F095
:10033000A32F1FD1F301EC5FFC4F3083F301319603
:100340003F01E4E0F0E0E615F70521F4002408148D
:10035000090409F035C03EDFE130A0E0FA0741F5BD
:100360000C2C0D2879F4E1E0F0E06F01E1E8E8BB46
:10037000AEE4B2E00E943703E1E0E8BBECD0A5EACE
:10038000B2E00DC0CC24DD24E0E8E8BBA2E1B2E09D
:100390000E943703E0E0E8BBDED0AAEAB2E009D170
:1003A000A4EFB1E00E94370366247724D4D008C0BC
:1003B000D2D0AFEAB2E00E942003CDD066247724E9
:1003C000E1E0F0E0E815F90519F4EA15FB0509F09C
:1003D00029C0E4E0F0E0E615F70521F5ACEBB2E06A
:1003E0000E942603AAEBB2E0E4D0A0E9B1E00E94AB
:1003F0002603F0DE309759F0AA24BB24E1E0F0E0B8
:100400004F01AFEBB2E0D5D0A0E2B3E006C0A3D07D
:10041000AEECB2E0CED0ACE2B1E00E9437039BD0AC
:1004200066247724E1E0F0E0E815F90521F40024E2
:100430000A140B0409F002C0A32FEBDEA091040301
:10044000AD3341F4A0910503AD3321F4A09106032F
:10045000AD3369F0A0910703AD3341F4A0910603D9
:10046000AD3321F4A0910503AD3309F00DC066242E
:100470007724E1E0F0E04F016ED0A5EDB2E099D035
:10048000A8E5B2E00E942603E0EFE2BB0E944B0326
:100490002496E991EFBFF991E991B991A9919991C8
:1004A000899179916991F990199009901895E0E0F6
:1004B000EABBEBBBE1E8E7BBE0E0E8BBE4BBE5BBE4
:1004C000EFE0E1BBE0EFE2BBEBB7E062EBBFE0E007
:1004D000E5BFE4BFE0E2EABFA0E17CD07894A1EE02
:1004E000B2E067D0A0E2B3E00E9426030E941803A6
:1004F000FDCFFFCFAA93EBB3EF70AE2FE881E07F83
:10050000EA2BEBBB82E08A95F1F7DA9A82E08A95D2
:10051000F1F7DA9882E08A95F1F788C0AA93A8816A
:10052000E9DFE881E295E883A881E4DF81E18A954B
:10053000F1F77CC0AA93E881F0E0E75FFC4FE0812F
:10054000A981AE0FEBDFE981E0930D03E881E09331
:100550000E0322960895A2E00E942A03ACE0DEDF9B
:10056000A1E00E942A03E0E0E0930E03E0930D0374
:100570000895AA93A881AA3031F0E0910F03A091C9
:100580000D03AE1760F0E0E0EA93A0910E03AF5FB9
:10059000A0930E03CFDFA881AA3009F447C0E091F1
:1005A0000D03EF5FE0930D03D89AA881B7DFD898C9
:1005B0003DC0BA93AA931A93A981BA81ED91A983F8
:1005C000BA831E2FE03019F0A12FD3DFF5CF1881A9
:1005D00023960895AA93EAB3E06FEABBD29AD09A21
:1005E000D19ADA98D898D998E881E0930F03E05827
:1005F000E0930B03E881E054E0930C03A4E1B0E046
:100600000E9437030E9430030E9430030E9430038F
:10061000A0E270DF81E28A95F1F7A8E27FDFA4E033
:100620007DDFA5E87BDFA6E079DF95DF21960895E1
:10063000E5B7EF78E5BFEFB778948895EFBF0895F9
:100640000E94D902A4EFB1E00C9437030E94370353
:100650000C94AB020E948E02A3E0B0E00C9437032E
:10066000A0E30E947A0281E28A95F1F7089510963C
:1006700039F08AEF90E00197F1F7A8951197C9F743
:100680000895EE0FFF1FEE0FFF1F08953A932A9370
:100690001A930A9308953B812A811981088108954C
:00000001FF
