:0E0000000C9430000C9400000C9400000C9442
:10000E005C000C9400000C9400000C9400000C9406
:10001E0000000C9400000C9400000C9400000C9452
:10002E0067000C9400000C9400000C9400000C94DB
:10003E0000000C9400000C9400000C9400000C9432
:10004E0000000C94000000000000040004005400A6
:10005E000000F894EE27ECBBF1E0F5BFE5BF8DE0B4
:10006E00A2E0BB27ED938A95E9F780E098E0A0E641
:10007E00ED930197E9F7E8E5F0E08591959100970A
:10008E0061F0A591B59105901590BF01F001059015
:10009E000D920197E1F7FB01F0CFEFE5EDBFE8E040
:1000AE00EEBFC0E6D2E00C948400EA93E5E0E3BF35
:1000BE00E6E8E2BFE0E0ECBFE1E0E9BFE9911895C8
:1000CE00EA93FA93EFB7EA93E6E8E2BFF3013196CB
:1000DE003F01E3E0F0E0E615F70554F4A89B02C0FB
:1000EE00A89801C0A89A66247724F20131962F01B0
:1000FE00E991EFBFF991E9911895E0E0E7BBE1E0F6
:10010E00E4BBA898EBB7E062EBBFE0E0E5BFE4BF6D
:10011E00E0E2EABFE0E0EAB9E0E8E8B9E0E0E0BF3B
:10012E00E6B9EDB9E6BFE9BF7894E3E0F0E0E41597
:10013E00F50524F444245524E0E0E9BFF6CFFFCFC3
:00000001FF
